:102155004101C9004E01BB00640000FF244000049A
:052165000000FF218ACB
:101D6E00E4900170F0900170E0FF75F007A424BBC1
:101D7E00F582E43401F583E0FCA3E0FDEF75F00796
:101D8E00A424BDF582E43401F583E475F001120755
:101D9E0062FED3ED95F0EC9E5046900170E0FF751B
:101DAE00F007A424BDF582E43401F583E4F0A3F03A
:101DBE00EF75F007A424BFF582E43401F583E0FB50
:101DCE00A3E0FAA3E04A4B6017EF75F007A424BF17
:101DDE00F582E43401F583A3E0FAA3E0F9120930A9
:0F1DEE00900170E004F0E0C394025003021D73F3
:011DFD0022C3
:10216A00470088010001008F00004800800100013B
:05217A00000000000060
:092431007BFF7A24790202241ACF
:0C2402009001E5EBF0A3EAF0A3E9F02262
:0B1F8F0090013FEBF0A3EAF0A3E9F0A3
:101F9A00900089E06401605E90016A7401F0A374A4
:101FAA0001F0A37442F090013FE0F9A3E0FAA3E044
:101FBA009001DBC9F0A3EAF0A3E9F090016AE0F925
:101FCA00A3E0FAA3E09001DEC9F0A3EAF0A3E9F0E6
:101FDA007B017A00798F12210B90016AE4F0A3F059
:101FEA00A3F07B017A00798F12000EAD077B017A8C
:061FFA00007988121C0EA4
:0120000022BD
:101DFE00C2A7C2A1C2A2C2A353F57F90FFF2E054C4
:101E0E00EFF0E054F0440CF090FFF07407F0A37480
:101E1E00D0F090FF04E04408F053F1FE90FF00E490
:101E2E00F0A304F0A3E4F0A3F053F5FE90FF14E04A
:101E3E0054F7F053F1FD90FF10E4F0A304F0A3E487
:101E4E00F0A3F053F5FD90FF24E054F7F053F1FBAF
:101E5E0090FF20E4F0A304F0A3E4F0A3F053F5FB0D
:101E6E0090FF34E054F7F053F1F790FF30E4F0A315
:0E1E7E0004F0A3E4F0A3F053F5F743F580223F
:1021F100AD07AC06C3ED94D0EC9407400653F5FE51
:10220100D2A722ED4C700653F5FEC2A722EC90FF37
:0922110000F0A3EDF043F50122F9
:10221A00AD07AC06C3ED94D0EC9407400653F5FD28
:10222A00D2A122ED4C700653F5FDC2A122EC90FF1B
:09223A0010F0A3EDF043F50222BF
:10224300AD07AC06C3ED94D0EC9407400653F5FB01
:10225300D2A222ED4C700653F5FBC2A222EC90FFF2
:0922630020F0A3EDF043F5042284
:10226C00AD07AC06C3ED94D0EC9407400653F5F7DC
:10227C00D2A322ED4C700653F5F7C2A322EC90FFCB
:09228C0030F0A3EDF043F5082247
:020009000022D3
:0F23E500D280D280120009C280120009C2802269
:0C240E00C280D280120009D280020009B6
:1022BC00E4FEC280120009EF339280120009D28032
:1022CC00EF25E0FF1200090EEEB408E6C280D280C2
:0122DC0022DF
:1022DD00E4FED280120009EF25E0FF3080034401B7
:0B22ED00FFC2801200090EEEB408E7EB
:0122F80022C3
:0423B400FF1222BC36
:0C23B800D280120009A280E433FFC28032
:0123C40022F6
:10238D00C280EF24FF9280120009D280120009C290
:04239D0080D2802248
:0E20BE009001D5EDF0A3EBF0A3EAF0A3E9F05A
:1020CC00E4FDFC1223E51222BC1223B89001D5E0EA
:1020DC001223B4D39001DAE09D9001D9E09C401C0E
:1020EC009001D6E0FBA3E0FAA3E0F98D828C831279
:0F20FC0006CE1223B40DBD00010C80D702240EB6
:06217F004301EE00000028
:101C0E009001E8EBF0A3EAF0A3E9F09001E8E0FB25
:101C1E00A3E0FAA3E0F99000011206CE640170036E
:101C2E00021CC190000174011207401206B524FE79
:101C3E00602214603714604C2403705E9001E8E05B
:101C4E00FBA3E0FAA3E0F99000021208DA1206B53F
:101C5E00F59980469001E8E0FBA3E0FAA3E0F99045
:101C6E0000021208DA1206B5F59B802E9001E8E00C
:101C7E00FBA3E0FAA3E0F99000021208DA1206B50F
:101C8E00F5AD80169001E8E0FBA3E0FAA3E0F99031
:101C9E0000021208DA1206B5F5859001E8E0FBA302
:101CAE00E0FAA3E0F9900006E4120740900005ED7B
:041CBE0012074022A7
:101AEE0090016DEBF0A3EAF0A3E9F090016DE0FB3D
:101AFE00A3E0FAA3E0F990000674011206FB900031
:101B0E00051206CEFF9000061206CEFEC39F4012AF
:101B1E0090016DE0FBA3E0FAA3E0F9900001E4026E
:101B2E00074090016DE0FBA3E0FAA3E0F91206B5C1
:101B3E0024FE6021146057147003021BD524036029
:101B4E0003021C0D9000021208DA8E8275830012B9
:101B5E0006CEF5992290016DE0FBA3E0FAA3E0F921
:101B6E009000021208DAC003C002C00190016DE0BD
:101B7E00FBA3E0FAA3E0F99000061206CED001D046
:101B8E0002D003F5827583001206CEF59B229001DA
:101B9E006DE0FBA3E0FAA3E0F99000021208DAC0B0
:101BAE0003C002C00190016DE0FBA3E0FAA3E0F9CF
:101BBE009000061206CED001D002D003F5827583B6
:101BCE00001206CEF5AD2290016DE0FBA3E0FAA364
:101BDE00E0F99000021208DAC003C002C0019001C1
:101BEE006DE0FBA3E0FAA3E0F99000061206CED05A
:101BFE0001D002D003F5827583001206CEF5852240
:1019AA0090016DEBF0A3EAF0A3E9F090016DE0FB82
:1019BA00A3E0FAA3E0F99000011206CE700E90009F
:1019CA000104120740900006E412074090016DE0FE
:1019DA00FBA3E0FAA3E0F990000674011206FB905B
:1019EA000007E41207409000051206CEFF90000699
:1019FA001206CEFED39F4003021AAD90016DE0FBA2
:101A0A00A3E0FAA3E0F91206B524FE6023146046A7
:101A1A0014606924036003021AEDEE24FFFFE43424
:101A2A00FFFE9000021208DA8F828E83E599807099
:101A3A0090016DE0FBA3E0FAA3E0F990000612061C
:101A4A00CE24FFFFE434FFFE9000021208DA8F82F0
:101A5A008E83E59B804A90016DE0FBA3E0FAA3E048
:101A6A00F99000061206CE24FFFFE434FFFE900030
:101A7A00021208DA8F828E83E5AD802490016DE030
:101A8A00FBA3E0FAA3E0F99000061206CE24FFFFBA
:101A9A00E434FFFE9000021208DA8F828E83E58515
:101AAA0002074090016DE0FBA3E0FAA3E0F9900081
:101ABA0001E41207409001EEE0FBA3E0FAA3E0F98B
:101ACA00EA494B601E90016DE0FBA3E0FAA3E0F93E
:101ADA00C0029001EEA3E0FAA3E0F5828A83D00265
:041AEA001209342287
:102001009001EBEBF0A3EAF0A3E9F09001EBE0FB28
:10201100A3E0FAA3E0F99000011206CE6401704832
:10202100900007041206FBC39406403C900001E4B3
:10203100120740900007E41207409001EEE0FBA375
:10204100E0FAA3E0F9EA494B601E9001EBE0FBA343
:10205100E0FAA3E0F9C0029001EEA3E0FAA3E0F5F3
:09206100828A83D00212093422A4
:0C241A009001EEEBF0A3EAF0A3E9F02241
:0617EC0090019312087049
:1017F200900197E0F8A3E0F9A3E0FAA3E0FB9001DF
:1018020093E0FCA3E0FDA3E0FEA3E0FF120029E4C5
:10181200FBFAF9F81202C490019760234021E0F824
:10182200A3E0F9A3E0FAA3E0FB900193E0FCA3E0BC
:10183200FDA3E0FEA3E0FF12002912033D801CE09D
:10184200F8A3E0F9A3E0FAA3E0FB900193E0FCA384
:10185200E0FDA3E0FEA3E0FF12002990019F120821
:1018620070E4FFFE7D347C4390019FE0F8A3E0F931
:10187200A3E0FAA3E0FB1202C460554053E4FFFE6A
:10188200FDFC900193E0F8A3E0F9A3E0FAA3E0FBEA
:101892001202C4501D900193E0FCA3E0FDA3E0FE00
:1018A200A3E0FFE4FBFA79B4784312002D90019390
:1018B200801B900197E0FCA3E0FDA3E0FEA3E0FF04
:1018C200E4FBFA79B4784312002D90019712087064
:1018D20090019BE0F8A3E0F9A3E0FAA3E0FBE4FFA8
:1018E200FE7D807C3F120029900197E0F8A3E0F989
:1018F200A3E0FAA3E0FB12011EC004C005C006C0AB
:101902000790019BE0FCA3E0FDA3E0FEA3E0FF90B3
:101912000193E0F8A3E0F9A3E0FAA3E0FB12011EB1
:10192200D003D002D001D00012002D9001A31208E2
:1019320070E4FFFE7D347C439001A3E0F8A3E0F95C
:10194200A3E0FAA3E0FB1202C4601A4018E4FFFE0F
:101952007DB47CC39001A3E0F8A3E0F9A3E0FAA36D
:10196200E0FB02002DE4FFFE7D347CC39001A3E086
:10197200F8A3E0F9A3E0FAA3E0FB1202C4501AE4D0
:10198200FFFE7DB47C439001A3E0F8A3E0F9A3E05D
:10199200FAA3E0FB12002D800E9001A3E0FCA3E06D
:0719A200FDA3E0FEA3E0FF3E
:0119A900221B
:101F1800AB07AA06A905A8049001AFE0FCA3E0FD61
:101F2800A3E0FEA3E0FF1200299001B71208709009
:101F380001ABE0F8A3E0F9A3E0FAA3E0FB9001B35A
:101F4800E0FCA3E0FDA3E0FEA3E0FF120029A80443
:101F5800A905AA06AB0712011EC004C005C006C029
:101F6800079001B7E0FCA3E0FDA3E0FEA3E0FFA813
:101F780004A905AA06FB12011ED003D002D001D085
:071F88000012002D021CC62F
:1022F90000000000000000000000000000000000D5
:0C230900000000000000000000000000C8
:042185004101F10023
:03244600021DFE76
:060003009001F1E0FF2274
:06243A009001F1EFF02219
:10218A0078707C017D017BFF7A2279F97E007F10CD
:10219A0012068F78807C017D017BFF7A2379097E84
:1021AA00007F0C12068F9001F1E0FF7B017A017922
:0421BA007002138B11
:100A36009001CAEBF0A3EAF0A3E9F09001CAE0FB4B
:100A4600A3E0FAA3E0F99000041207A6E4FBFAF982
:100A5600F81202C49001CA60154013E0FBA3E0FA45
:100A6600A3E0F99000041207A612033D800EE0FBF6
:100A7600A3E0FAA3E0F99000041207A6C004C0059B
:100A8600C006C0079001CAE0FBA3E0FAA3E0F91292
:100A96000786E4FBFAF9F81202C49001CA60124014
:100AA60010E0FBA3E0FAA3E0F912078612033D80EB
:100AB6000BE0FBA3E0FAA3E0F9120786AB07AA0650
:100AC600A905A804D007D006D005D00412002DE44D
:100AD600FBFA79A078421202C44003020C78900116
:100AE600CAE0FBA3E0FAA3E0F99000041207A6E42B
:100AF600FBFAF9F81202C49001CA60154013E0FB34
:100B0600A3E0FAA3E0F99000041207A612033D80C1
:100B16000EE0FBA3E0FAA3E0F99000041207A6C0DA
:100B260004C005C006C0079001CAE0FBA3E0FAA313
:100B3600E0F9120786E4FBFAF9F81202C49001CA3A
:100B460060124010E0FBA3E0FAA3E0F91207861258
:100B5600033D800BE0FBA3E0FAA3E0F9120786ABA6
:100B660007AA06A905A804D007D006D005D0041206
:100B7600002DC004C005C006C0079001CAE0FBA353
:100B8600E0FAA3E0F9120786D003D002D001D00024
:100B9600120227E4FBFA79A0784212011E12038C96
:100BA600AD07AC06EC1203539001CAE0FBA3E0FAD2
:100BB600A3E0F91207D69001CAE0FBA3E0FAA3E08E
:100BC600F99000041207A6E4FBFAF9F81202C460D1
:100BD6004640449001CAE0FBA3E0FAA3E0F91207FD
:100BE60086E4FBFAF9F81202C49001CA60124010BA
:100BF600E0FBA3E0FAA3E0F912078612033D800B9F
:100C0600E0FBA3E0FAA3E0F9120786E4FBFA79A079
:100C160078C212002D804A9001CAE0FBA3E0FAA335
:100C2600E0F9120786E4FBFAF9F81202C49001CA49
:100C360060124010E0FBA3E0FAA3E0F91207861267
:100C4600033D800BE0FBA3E0FAA3E0F9120786ABB5
:100C560007AA06A905A804E4FFFE7DA07C421200AF
:100C6600299001CAE0FBA3E0FAA3E0F99000041280
:100C760007F09001CAE0FBA3E0FAA3E0F9900008B0
:100C86001207A6E4FBFAF9F81202C49001CA60152D
:100C96004013E0FBA3E0FAA3E0F99000081207A6D0
:100CA60012033D800EE0FBA3E0FAA3E0F9900008F2
:100CB6001207A6E4FBFA79A078411202C4400302A7
:020CC6000E1B03
:100CC8009001CAE0FBA3E0FAA3E0F9900004120740
:100CD800A6E4FBFAF9F81202C49001CA60154013A1
:100CE800E0FBA3E0FAA3E0F99000041207A61203C0
:100CF8003D800EE0FBA3E0FAA3E0F99000041207A0
:100D0800A6AB07AA06A905A804C000C001C002C076
:100D1800039001CAE0FBA3E0FAA3E0F9120786E416
:100D2800FBFAF9F81202C49001CA60124010E0FB05
:100D3800A3E0FAA3E0F912078612033D800BE0FB5B
:100D4800A3E0FAA3E0F9120786AB07AA06A905A84B
:100D580004E4FFFE7DC87C42120029D003D002D0F3
:100D680001D0001200299001D01208709001CAE049
:100D7800FBA3E0FAA3E0F99000081207A6E4FBFA47
:100D8800F9F81202C49001CA60154013E0FBA3E011
:100D9800FAA3E0F99000081207A612033D800EE0BE
:100DA800FBA3E0FAA3E0F99000081207A69001D08F
:100DB800E0F8A3E0F9A3E0FAA3E0FB1202C4505361
:100DC8009001CAE0FBA3E0FAA3E0F990000812073B
:100DD800A6E4FBFAF9F81202C4601940179001D092
:100DE800E0FCA3E0FDA3E0FEA3E0FF12033D9001B9
:100DF800D01208709001D0E0FCA3E0FDA3E0FEA3B0
:100E0800E0FF9001CAE0FBA3E0FAA3E0F990000834
:030E18001207F0CE
:100E1B009001CAE0FBA3E0FAA3E0F99000041207EB
:100E2B00A61208201200299001CAE0FBA3E0FAA346
:100E3B00E0F99000081208401200299001CDE0FB68
:100E4B00A3E0FAA3E0F91207D69001CAE0FBA3E0F6
:100E5B00FAA3E0F99000041207A612082012002D45
:100E6B009001CAE0FBA3E0FAA3E0F9900008120896
:100E7B004012002D9001CDE0FBA3E0FAA3E0F99026
:100E8B0000041207F09001CAE0FBA3E0FAA3E0F91B
:100E9B009000041207A612082012002D9001CAE040
:100EAB00FBA3E0FAA3E0F990000812084012002916
:100EBB009001CDE0FBA3E0FAA3E0F9900008120744
:100ECB00F09001CAE0FBA3E0FAA3E0F99000041252
:100EDB0007A61208201200299001CAE0FBA3E0FA32
:100EEB00A3E0F990000812084012002D9001CDE00C
:0D0EFB00FBA3E0FAA3E0F990000C0207F061
:0B138B0090018CEBF0A3EAF0A3E9F066
:10139600120786E4FBFA79C878C21202C4601640C6
:1013A6001490018CE0FBA3E0FAA3E0F912087CC2DA
:1013B600C80000802C90018CE0FBA3E0FAA3E0F9C2
:1013C600120786E4FBFA79C878421202C4501290DA
:1013D600018CE0FBA3E0FAA3E0F912087C42C80006
:1013E6000090018CE0FBA3E0FAA3E0F99000041260
:1013F60007A6E4FBFA79C878C21202C4601940173E
:1014060090018CE0FBA3E0FAA3E0F9900004120837
:1014160096C2C80000803290018CE0FBA3E0FAA3DC
:10142600E0F99000041207A6E4FBFA79C8784212A4
:1014360002C4501590018CE0FBA3E0FAA3E0F990FA
:10144600000412089642C8000090018CE0FBA3E05D
:10145600FAA3E0F99000081207A6E4FBFA79C87827
:10146600C21202C46019401790018CE0FBA3E0FA97
:10147600A3E0F9900008120896C2C80000803290D6
:10148600018CE0FBA3E0FAA3E0F99000081207A69E
:10149600E4FBFA79C878421202C4501590018CE038
:1014A600FBA3E0FAA3E0F990000812089642C800F0
:1014B6000090018CE0FBA3E0FAA3E0F990000C1287
:1014C60007A6E4FBFA79C878C21202C4601940176D
:1014D60090018CE0FBA3E0FAA3E0F990000C12085F
:1014E60096C2C80000803290018CE0FBA3E0FAA30C
:1014F600E0F990000C1207A6E4FBFA79C8784212CC
:1015060002C4501590018CE0FBA3E0FAA3E0F99029
:10151600000C12089642C8000090018CE0FBA3E084
:10152600FAA3E0F9120786E4FBFAF9F81202C4609E
:10153600084006C280D280802290018CE0FBA3E0A6
:10154600FAA3E0F9120786E4FBFAF9F81202C4508E
:1015560006D280C2808004C280C28090018CE0FBEB
:10156600A3E0FAA3E0F9120786E4FBFAF9F81202FF
:10157600C490018C60124010E0FBA3E0FAA3E0F9EE
:1015860012078612033D800BE0FBA3E0FAA3E0F905
:1015960012078690018F120870E4FBFA79C8784228
:1015A60090018FE0FCA3E0FDA3E0FEA3E0FF1202A2
:1015B60027E4FBFA79FA784412011E12038C1221F1
:1015C600F190018CE0FBA3E0FAA3E0F9900004128D
:1015D60007A6E4FBFAF9F81202C460084006C280C6
:1015E600D280802590018CE0FBA3E0FAA3E0F9907D
:1015F60000041207A6E4FBFAF9F81202C45006D258
:1016060080C2808004C280C28090018CE0FBA3E08F
:10161600FAA3E0F99000041207A6E4FBFAF9F8121F
:1016260002C490018C60154013E0FBA3E0FAA3E02E
:10163600F99000041207A612033D800EE0FBA3E01A
:10164600FAA3E0F99000041207A690018F12087021
:10165600E4FBFA79C8784290018FE0FCA3E0FDA391
:10166600E0FEA3E0FF120227E4FBFA79FA784412BF
:10167600011E12038C12221A90018CE0FBA3E0FAE1
:10168600A3E0F99000081207A6E4FBFAF9F81202A3
:10169600C460084006C280D280802590018CE0FBA1
:1016A600A3E0FAA3E0F99000081207A6E4FBFAF912
:1016B600F81202C45006D280C2808004C280C28062
:1016C60090018CE0FBA3E0FAA3E0F9900008120772
:1016D600A6E4FBFAF9F81202C490018C60154013D7
:1016E600E0FBA3E0FAA3E0F99000081207A61203B4
:1016F6003D800EE0FBA3E0FAA3E0F9900008120794
:10170600A690018F120870E4FBFA79C8784290011E
:101716008FE0FCA3E0FDA3E0FEA3E0FF120227E4B6
:10172600FBFA79FA784412011E12038C12224390B6
:10173600018CE0FBA3E0FAA3E0F990000C1207A6E7
:10174600E4FBFAF9F81202C460084006C280D280AF
:10175600802590018CE0FBA3E0FAA3E0F990000C51
:101766001207A6E4FBFAF9F81202C45006D280C2A8
:10177600808004C280C28090018CE0FBA3E0FAA3C3
:10178600E0F990000C1207A6E4FBFAF9F81202C47D
:1017960090018C60154013E0FBA3E0FAA3E0F990FA
:1017A600000C1207A612033D800EE0FBA3E0FAA38D
:1017B600E0F990000C1207A690018F120870E4FB66
:1017C600FA79C8784290018FE0FCA3E0FDA3E0FE21
:1017D600A3E0FF120227E4FBFA79FA784412011E0D
:0617E60012038C02226CCC
:1023C5001221BE9001C9E060FAE4F0121D6E80F39F
:1021BE0043BA80E4F594F593F592F591F596F5957D
:1021CE00F5B2F5B1F5B4F5B3F5CAF5C9F5CCF5CB65
:1021DE00F5E2F5E112232F1223D5122315122377E0
:0321EE00D2AF224B
:102348000000000000000000000000000000EF1F77
:0823580070011E144E70E92211
:102360007D607C09ED1D70011C144C70F7EF1F702F
:06237000011E144E70EA8C
:012376002244
:06244000A280B39280228D
:10232F005389FB538E7F5389FC5389F7D2B9D2A9B6
:09233F00758CD8758AF0D28C224D
:1023D500538EF7438E0475D6FF75D7CC438E1022E6
:03000B000223A12C
:1023A100C0E0C083C0829001C97401F0D082D083A3
:0323B100D0E03247
:10231500E5A2543F4440F5A2438E01D29CE5985472
:0A2325003F4440F598C2BCD2AC2240
:0300230002206A4E
:10206A00C0E0C0F0C083C082C0D075D000C000C03C
:10207A0001C002C003C004C005C006C00730990BE6
:10208A00C2997B017A007988121AEE30980BC298AD
:10209A007B017A0079801219AAD007D006D005D020
:1020AA0004D003D002D001D000D0D0D082D083D0C7
:0420BA00F0D0E03250
:1023770053A2F343CE1043CE8053CEDF53CEF35355
:06238700CEFC43CE402213
:0B2426008FCFE5CD30E7FB43CDC02297
:0E23F40075CFFFE5CD30E7FB43CDC0AFCF2264
:100026000203F8E86480F8E933E83360110460F00D
:10003600ED33EC337009E8FCE9FDEAFEEBFF220440
:1000460060DED3EB9FEA9EE99DE8C2E78CF0C2F73B
:1000560095F0400CE8CCF8E9CDF9EACEFAEBCFFB07
:100066001203C385D0F05804700320D5B3E804709A
:10007600075002B2D502040292D5EC0460F7E4CC34
:10008600C0E0C398F8603B94186008400DD0E0FBD0
:100096000203DAE4FBFAC9FC8028E830E406E4C986
:1000A600FBE4CAFCE830E305E4C9CACBFCE8540724
:1000B6006010F8C3E913F9EA13FAEB13FBEC13FC2F
:1000C600D8F130F52FC3E49CFCEF9BFFEE9AFEEDD2
:1000D60099FDD0E0FBEF4E4D4C701222DB0302037C
:1000E600FFEC2CFCEF33FFEE33FEED33FDED30E796
:1000F600EB0203DAEF2BFFEE3AFEED39FDD0E0FB23
:1001060050130BBB0003020402ED13FDEE13FEEFCA
:0801160013FFEC13FC0203DAF5
:10011E00EC4D6011E8497017ED33EC3304600DE4DB
:10012E00FCFFFEFD22E933E8330470F80203F812F7
:10013E0003C358046009E4CC2481500628500902F8
:10014E0004022840030203FFC0E0EB4A7044B9806A
:10015E0006D0E0FB0203EEEF4E701CBD8008EBFFF5
:10016E00EAFEE9FD80EBE98DF0A4FEE5F002020760
:10017E00E9CDF9EAFEEBFFEF89F0A4FCE5F0CE89BC
:10018E00F0A42EFFE435F0CD89F0A42DFEE435F079
:10019E008067EF4E7005BD80D780C3EF8BF0A4ACA7
:1001AE00F0EE8BF0A42CFCE435F0F8EF8AF0A42CE2
:1001BE00E5F038FCE433CB8DF0A42CFCE5F03BF8F5
:1001CE00EE8AF0A42CFCE5F038F8E433CF89F0A4E5
:1001DE002CFCE5F038CF3400CE89F0A42FFFE5F0EB
:1001EE003EFEE433C98DF0A42EFEE5F039CD8AF043
:1001FE00A42FFFE5F03EFEE43DFD33D0E0FB5007BB
:10020E000BBB000F020402EC2CFCEF33FFEE33FEAF
:06021E00ED33FD0203DADE
:10022400020402EC5D046005E8590470030203F85B
:100234001203C3580460F6EC4860F2EC7004FDFE4F
:10024400FF22C860DB2481C85009C39860025006AD
:100254000203FF9850CAF582E9294B4A7005AB8224
:100264000203EE75F0007C1A7880C3EF9BEE9AEDE2
:1002740099400DC3EF9BFFEE9AFEED99FDE842F025
:10028400DC23ACF0D0E0FFD0E0FED0E0FDAB822078
:10029400E7101BEB60BAEC2CFCEF33FFEE33FEED02
:1002A40033FD0203DAE803F830E705C0F075F00027
:1002B400EF2FFFEE33FEED33FD40B830E7C280AAE6
:1002C40074F8CC6480CCC86480C8F58204604FC3E1
:1002D400EB9FF5F0EA9E42F0E99D42F0E89C45F080
:1002E400603C501DE5825FFFE582D313CB5BCBF40A
:1002F4002B5582FB50280ABA002409B90020088033
:100304001DE5825BFBE582D313CF5FCFF4C3132FCC
:100314005582FF50090EBE00050DBD00010CC3EB54
:100324009FF5F0EA9E42F0E99D42F0E89C45F060BA
:0903340007CC4820E701B3EC22DC
:10033D00ED33EC33600A047003BD8004ECB2E7FCCE
:01034D00228D
:10034E0075F020800E75F010800575F0087D007E2A
:10035E00007F003392D530D503120778EC3340106E
:10036E00EF33FFEE33FEED33FDEC33FCD5F0ED2233
:0E037E00E5F0247EA2D513CC92E7CDCEFF226F
:10038C00EDD2E7CD33EC3392D524814006E4FFFE69
:10039C00FDFC22FCE4CFCECDCC24E0501174FF80C8
:1003AC00EDC3CC13CCCD13CDCE13CECF13CF047065
:0703BC00F030D5DE020778E6
:101CC2000203F822EDA2E7D2E7F9EC3340F260F327
:101CD200B4FF08ED547F70E8020402F82481C2E0E8
:101CE200C0E0F40428FAC313FCED92E7FD9001E191
:101CF200120870EEA2E7E9BA7F02C313340094001F
:101D0200FA75F091A4E5F013F494FE8AF0A433E599
:101D1200F033248CD313FDE492E7FE7F007C3F7501
:101D22008302ECC0E0F8EDC0E0F9EEC0E0FAEFC0EB
:101D3200E0FB8583F09001E112081485F083120222
:101D420027D0E0FBD0E0FAD0E0F9D0E0F812002D85
:101D5200ED6480FD30E7011CD583C7ED33CC33F849
:0C1D6200D0E0A2E71328C313CC13FD222D
:10210B009001DBE0FFA3E0FEA3E0CF900112F0A370
:10211B00EEF0A3EFF09001DEE0CBF0A3E0CAF0A36A
:10212B00E0C9F07F22900115AD82AC831206B58D0C
:10213B00828C83F0A309E970010ADFEC9001DEE0E9
:0A214B00FBA3E0FAA3E0F9020F6D18
:1003C300E9D2E7C933E833F892D5EDD2E7CD33EC80
:0703D30033FC5002B2D522F9
:1003DA00EC30E7100FBF000C0EBE00080DBD000484
:1003EA000BEB6014A2D5EB13FCED92E7FD2274FF30
:1003FA00FCFDFEFF22E480F8A2D574FF13FC7D8089
:03040A00E480EF9C
:100F0800E5082412F582E43401F583E0050822900F
:100F1800010F300703900112E475F0011208BA02BC
:100F280006B52000E97F2ED2008018EF540F2490D8
:100F3800D43440D4FF30040BEF24BFB41A0050035C
:100F48002461FFE50960021509050CE50C7002052E
:100F58000B30070E90010FE475F0011208BAEF028A
:100F6800072E0222957403D2078003E4C207F5080E
:100F780090010F1208D1E4F509F50BF50CE50960AD
:100F8800077F20120F4B80F5750AFFC201C200C20D
:100F980002C203C205C206C208120F17FF700D3045
:100FA80007057F00120F5CAF0CAE0B22B4255FC2A1
:100FB800D5C204120F17FF24D0B40A00501A75F0D6
:100FC8000A780930D50508B6FF0106C6A426F6201A
:100FD800D5047002D20380D924CFB41A00EF50048C
:100FE800C2E5D20402124ED20180C6D20080C0D21D
:100FF8000280BCD2D580BAD20580B47F20120F4BB4
:101008002002077401B5090040F1120F08FF120F02
:101018004B020F85D208D2068095120F08FB120FDB
:1010280008FA120F08F94A4B7006794C7A137BFFBD
:1010380020022EE509602A7E008E82758300120642
:10104800CE60060EEE650A70F0C2D5EBC0E0EAC0CD
:10105800E0E9C0E0EE1212AFD0E0F9D0E0FAD0E05B
:10106800FB1206B5FF60AAEBC0E0EAC0E0E9C0E009
:10107800120F4BD0E02401F9D0E03400FAD0E0FBA5
:10108800E50A0460DCD50AD98087D20280A2121250
:101098009160F7E50A70010412040DA90A600DE5D4
:1010A8000A600914F50A121339EF60F3EA30E7020F
:1010B800F404C3995079EAF4250A0430E701E404FA
:1010C800F50A800D12129160C1EA050A250A120478
:1010D8000DEA90013EF030E701E4250A04D50A0440
:1010E800200501141212AFE4C0E012133990013E3A
:1010F800E0601320E70714F0120F33802204F0D0C9
:10110800E014C0E07F00120F33E50A6007120F2ACF
:10111800150A800B300503120F2AD0E0020F85D084
:10112800E00480C4121291609EE50A0412040D9036
:10113800013EEAF0E50A20050260010424041212C7
:01114800AFF7
:1011490074FF04C0E0121339120F33E50A200502B7
:101159006003120F2AD0E0B50AE87F45120F3D90CF
:10116900013EE07F2B30E7047F2DF404C0E0120F2D
:101179004BD0E075F00A84C0F0120F34D0E0120FA2
:1011890034020F85791080027908C206C2088008E6
:10119900D2D5790A8004790AC2D5E50A047002F524
:1011A9000AE4FAFDFEFF120F08FC7B082001131266
:1011B9000F08FD7B1030000A120F08FE120F08FFFE
:1011C9007B20EC3382D592D55013C3E43000069FBF
:1011D900FFE49EFEE42001039DFDE49CFCE4CBF8C2
:1011E900C201EC700CCFCECDCCE824F8F870F380B6
:1011F90017C3EF33FFEE33FEED33FDEC33FCEB3376
:10120900FB994002FB0FD8E9EB300105F8D0E0C4A7
:1012190048B201C0E00AEC4D4E4F78207B0070C205
:10122900EAB50A0040BCC0E01212B1D0F0D0E0200B
:101239000104C4C0E0C4B201C0F0120F34D0F0D52B
:10124900F0EB020F8512090A102253118D580FF382
:101259004C0FEF4211914F119944119949100843CC
:10126900119F5510CC46112C45109647136C500F01
:10127900F72D0FFB2E101E2B0FFF23101C201355CB
:101289002A0FB74800001016E50AB4FF03750A06CD
:10129900120F08FC120F08FD120F08FE120F08FFAB
:1012A90090013702044A790AA2D5200314300509AE
:1012B900B910020404B9080104A2D520060250019C
:1012C900042002689202B509005034C0E07F203042
:1012D90003197F30A20272067205500F121308C259
:1012E90002C206C205C2087F30800F300503E9C07B
:1012F900E0120F4B300503D0E0F9D0E0B509CC304E
:1013090005177F30B9100C120F4B7F583004077F37
:10131900788003B90803120F4B3002057F2D020FA5
:101329004B7F202008F87F2B2006F322920280CFE2
:101339007F00B40700500B2437F582E43401F583AC
:10134900E0FF22286E756C6C2900D201120F08305B
:1013590001F8C201780930D50108F6020FB72D50FE
:10136900434958120F082403B405004001E49013BF
:101379006793120F3C743A120F3CD20375090402A9
:02138900118DC4
:10040D00F920E73624F950037907E4F42402FBE5DB
:10041D0082158270021583DBF6E024FB501BE96028
:10042D0014E4F0E582158270021583E004F0B40A3D
:0D043D0008E4F0D9EE7401F00A22C2D522C5
:10044A00ED33EC3392D5FA602AB4FF33EDC2E77B81
:10045A00FF60067A04796FE4227A04797820D50459
:10046A007A047973224E614E002B494E46002D497B
:10047A004E4600E47A08F0A3DAFC7B00740722C037
:10048A0083C082ECC0E0EDC0E0EEC0E0EFC0E0EA7D
:10049A0075F010A4CAABF075F04DA42BFBE435F04F
:1004AA00FCEA2410FAEB34C5FBEC34D9FCEDC2E7C4
:1004BA00FF75F056A4F42411C5F0F434C58FF0A4E6
:1004CA002AE5F03BE43CF020E71412057FD0E0FF78
:1004DA00D0E0FED0E0FDD0E0FC1202278014F40444
:1004EA0012057FD0E0FFD0E0FED0E0FDD0E0FC12A4
:1004FA00011ED082D083E0FAEDD2E7CD33EC33246B
:10050A0082FBE4C3CF33CFCE33CECD33CD33DBF34F
:10051A007B0775F00A846004F0A31B0AE5F0F0A3D8
:10052A008FF0740AA4FFACF08EF0740AA42CFEAC0F
:10053A00F050010C8DF0740AA42CFDE435F0F0A300
:05054A00DBDE74072256
:10054F003F8000004120000042C80000447A0000B4
:10055F00461C400047C35000497424004B18968036
:10056F004CBEBC205A0E1BCA6753C21C749DC5AE2D
:10057F00FB60065407601C23231205ADEB54386053
:10058F00091205991205A812011EECF8EDF9EEFA01
:10059F00EFCB22EB1205A880F1543803241C9005F1
:1005AF004FFE93FC0EEE93FD0EEE930ECE93FF22B5
:03000000021E8C51
:0C1E8C00787FE4F6D8FD758121021ED39A
:1005BF00E709F608DFFA8046E709F208DFFA803E1E
:1005CF0088828C83E709F0A3DFFA8032E309F6080B
:1005DF00DFFA8078E309F208DFFA807088828C8373
:1005EF00E309F0A3DFFA806489828A83E0A3F60827
:1005FF00DFFA805889828A83E0A3F208DFFA804C01
:10060F0080D280FA80C680D4806980F280338010D7
:10061F0080A680EA809A80A880DA80E280CA803340
:10062F0089828A83ECFAE493A3C8C582C8CCC583B8
:10063F00CCF0A3C8C582C8CCC583CCDFE9DEE78088
:10064F000D89828A83E493A3F608DFF9ECFAA9F007
:10065F00EDFB2289828A83ECFAE0A3C8C582C8CC5D
:10066F00C583CCF0A3C8C582C8CCC583CCDFEADE76
:10067F00E880DB89828A83E493A3F208DFF980CCD8
:10068F0088F0EF60010E4E60C388F0ED2402B404D1
:10069F000050B9F582EB2402B4040050AF23234578
:0606AF00822390060F7388
:1006B500BB010689828A83E0225002E722BBFE0243
:0906C500E32289828A83E4932276
:1006CE00BB010CE58229F582E5833AF583E02250E1
:1006DE0006E92582F8E622BBFE06E92582F8E2222B
:0D06EE00E58229F582E5833AF583E4932245
:1006FB00BB010FF8E58229F582E5833AF583E02803
:10070B00F0225009C58229F8E58226F622BBFE09A4
:10071B00C58229F8E22582F222F8EA2583F583E9DE
:03072B00932822EE
:10072E00BB010689828A83F0225002F722BBFE01AA
:02073E00F322A4
:10074000F8BB010DE58229F582E5833AF583E8F0EF
:10075000225006E92582C8F622BBFE05E92582C89B
:02076000F22283
:10076200C5F0F8A3E028F0C5F0F8E5821582700222
:060772001583E038F022BF
:0E077800C3E49FFFE49EFEE49DFDE49CFC2292
:10078600BB010789828A830208145005E9F8020929
:1007960036BBFE05E9F802094289828A8302094EC0
:1007A600BB010DE58229F582E5833AF5830208143B
:1007B6005007E92582F8020936BBFE07E92582F8CB
:1007C600020942E58229F582E5833AF58302094E5C
:1007D600BB010789828A830208705005E9F802097D
:0A07E60094BBFE05E9F80209A02209
:1007F000BB010DE58229F582E5833AF58302087095
:100800005007E92582F8020994BBFE07E92582F822
:040810000209A02217
:0C081400E0FCA3E0FDA3E0FEA3E0FF2257
:10082000BB010789828A8302096B5005E9F8020936
:100830005EBBFE05E9F802097789828A8302098492
:10084000BB010DE58229F582E5833AF58302096B48
:100850005007E92582F802095EBBFE07E92582F808
:10086000020977E58229F582E5833AF58302098456
:0C087000ECF0A3EDF0A3EEF0A3EFF022FB
:10087C00BB010789828A830209C55005E9F8020980
:0A088C00ACBBFE05E9F80209F622F4
:10089600BB010DE58229F582E5833AF5830209C598
:1008A6005007E92582F80209ACBBFE07E92582F864
:0408B6000209F6221B
:1008BA00F8E0FBA3A3E0F925F0F0E58215827002C7
:0708CA001583E0FA38F0226B
:0908D100EBF0A3EAF0A3E9F02228
:1008DA00BB010DE58229F582E5833AF583020A1800
:1008EA005007E92582F8020A0FBBFE07E92582F8BC
:1008FA00020A21E58229F582E5833AF583020A2A6A
:10090A00D083D082F8E4937012740193700DA3A37C
:10091A0093F8740193F5828883E473740293686090
:06092A00EFA3A3A380DF90
:060930008A838982E47352
:10229500EFB40A07740D1222A0740A309811A89998
:1022A500B8130CC2983098FDA899C298B811F630A9
:0722B50099FDC299F5992281
:10000E00E4FFFE1206B5600C0FEF70010E09E970E9
:05001E00F20A80EF2250
:101E98000223C5E493A3F8E493A34003F68001F278
:101EA80008DFF48029E493A3F85407240CC8C3334B
:101EB800C4540F4420C8834004F456800146F6DF1A
:101EC800E4800B0102040810204080902155E47E34
:101ED800019360BCA3FF543F30E509541FFEE4930F
:101EE800A360010ECF54C025E060A840B8E493A3D6
:101EF800FAE493A3F8E493A3C8C582C8CAC583CA01
:101F0800F0A3C8C582C8CAC583CADFE9DEE780BEB8
:012189000055
:0C093600E6FC08E6FD08E6FE08E6FF22ED
:0C094200E2FC08E2FD08E2FE08E2FF22F1
:10094E00E493FC740193FD740293FE740393FF22EF
:0D095E00E6FB08E6F908E6FA08E6CBF82209
:0C096B00E0F8A3E0F9A3E0FAA3E0FB220F
:0D097700E2FB08E2F908E2FA08E2CBF82200
:10098400E493F8740193F9740293FA740393FB22C9
:0C099400ECF608EDF608EEF608EFF6228F
:0C09A000ECF208EDF208EEF208EFF22293
:1009AC00D083D082E493F608740193F60874029312
:0909BC00F608740393F674047349
:1009C500A8828583F0D083D0821209DC1209DC125B
:1009D50009DC1209DCE473E493A3C583C5F0C58380
:1009E500C8C582C8F0A3C583C5F0C583C8C582C87C
:0109F50022DF
:1009F600D083D082E493F208740193F208740293D0
:090A0600F208740393F274047306
:090A0F00E6FB08E6FA08E6F9220C
:090A1800E0FBA3E0FAA3E0F922DF
:090A2100E2FB08E2FA08E2F92206
:0C0A2A00E493FB740193FA740293F92228
:00000001FF
