:0E0F21004100400047003900640000FF0FD47B
:100BF500E490004CF090004CE0FF75F007A4243918
:100C0500F582E43400F583E0FCA3E0FDEF75F00721
:100C1500A4243BF582E43400F583E475F001120366
:100C2500CFFED3ED95F0EC9E504690004CE0FF755D
:100C3500F007A4243BF582E43400F583E4F0A3F047
:100C4500EF75F007A4243DF582E43400F583E0FB5D
:100C5500A3E0FAA3E04A4B6017EF75F007A4243D23
:100C6500F582E43400F583A3E0FAA3E0F91204CA9F
:0F0C750090004CE004F0E0C394015003020BFA2E
:010C8400224D
:100C8500C2A7C2A1C2A2C2A353F57F90FFF2E0544E
:100C9500EFF0E054F0440CF090FFF07407F0A3740B
:100CA500D0F090FF04E04408F053F1FE90FF00E41B
:100CB500F0A304F0A3E4F0A3F053F5FE90FF14E0D5
:100CC50054F7F053F1FD90FF10E4F0A304F0A3E412
:100CD500F0A3F053F5FD90FF24E054F7F053F1FB3A
:100CE50090FF20E4F0A304F0A3E4F0A3F053F5FB98
:100CF50090FF34E054F7F053F1F790FF30E4F0A3A0
:0E0D050004F0A3E4F0A3F053F5F743F58022C9
:100E7D00AD07AC06C3ED94D0EC9407400653F5FED8
:100E8D00D2A722ED4C700653F5FEC2A722EC90FFBF
:090E9D0000F0A3EDF043F5012281
:100EA600AD07AC06C3ED94D0EC9407400653F5FDB0
:100EB600D2A122ED4C700653F5FDC2A122EC90FFA3
:090EC60010F0A3EDF043F5022247
:100ECF00AD07AC06C3ED94D0EC9407400653F5FB89
:100EDF00D2A222ED4C700653F5FBC2A222EC90FF7A
:090EEF0020F0A3EDF043F504220C
:100EF800AD07AC06C3ED94D0EC9407400653F5F764
:100F0800D2A322ED4C700653F5F7C2A322EC90FF52
:090F180030F0A3EDF043F50822CE
:06098B0090000012044F71
:10099100900004E0F8A3E0F9A3E0FAA3E0FB9000E3
:1009A10000E0FCA3E0FDA3E0FEA3E0FF120029E4C8
:1009B100FBFAF9F81202C490000460234021E0F828
:1009C100A3E0F9A3E0FAA3E0FB900000E0FCA3E0C0
:1009D100FDA3E0FEA3E0FF12002912033D801CE00D
:1009E100F8A3E0F9A3E0FAA3E0FB900000E0FCA388
:1009F100E0FDA3E0FEA3E0FF12002990000C120429
:100A01004FE4FFFE7D347C4390000CE0F8A3E0F955
:100A1100A3E0FAA3E0FB1202C460554053E4FFFED9
:100A2100FDFC900000E0F8A3E0F9A3E0FAA3E0FBED
:100A31001202C4501D900000E0FCA3E0FDA3E0FE03
:100A4100A3E0FFE4FBFA79B4784312002D90000093
:100A5100801B900004E0FCA3E0FDA3E0FEA3E0FF07
:100A6100E4FBFA79B4784312002D90000412044F8C
:100A7100900008E0F8A3E0F9A3E0FAA3E0FBE4FFAB
:100A8100FE7D807C3F120029900004E0F8A3E0F98C
:100A9100A3E0FAA3E0FB12011EC004C005C006C01A
:100AA10007900008E0FCA3E0FDA3E0FEA3E0FF90B7
:100AB1000000E0F8A3E0F9A3E0FAA3E0FB12011EB5
:100AC100D003D002D001D00012002D9000101204EA
:100AD1004FE4FFFE7D347C43900010E0F8A3E0F981
:100AE100A3E0FAA3E0FB1202C4601A4018E4FFFE7F
:100AF1007DB47CC3900010E0F8A3E0F9A3E0FAA371
:100B0100E0FB02002DE4FFFE7D347CC3900010E089
:100B1100F8A3E0F9A3E0FAA3E0FB1202C4501AE43F
:100B2100FFFE7DB47C43900010E0F8A3E0F9A3E060
:100B3100FAA3E0FB12002D800E900010E0FCA3E070
:070B4100FDA3E0FEA3E0FFAD
:010B4800228A
:100D9F00AB07AA06A905A80490001CE0FCA3E0FD80
:100DAF00A3E0FEA3E0FF12002990002412044F904D
:100DBF000018E0F8A3E0F9A3E0FAA3E0FB9000200D
:100DCF00E0FCA3E0FDA3E0FEA3E0FF120029A804CE
:100DDF00A905AA06AB0712011EC004C005C006C0B4
:100DEF0007900024E0FCA3E0FDA3E0FEA3E0FFA832
:100DFF0004A905AA06FB12011ED003D002D001D010
:070E0F000012002D020B4D43
:100F2F00500028000000000000000000000000003A
:070F3F000000004100380032
:030FDA00020C8581
:0B052A00900041EBF0A3EAF0A3E9F021
:100535001203F3E4FBFA79C878C21202C4601640CC
:1005450014900041E0FBA3E0FAA3E0F912048CC289
:10055500C80000802C900041E0FBA3E0FAA3E0F97D
:100565001203F3E4FBFA79C878421202C4501290E0
:100575000041E0FBA3E0FAA3E0F912048C42C800B5
:1005850000900041E0FBA3E0FAA3E0F9900004121B
:100595000413E4FBFA79C878C21202C46019401743
:1005A500900041E0FBA3E0FAA3E0F99000041204F7
:1005B500A6C2C800008032900041E0FBA3E0FAA388
:1005C500E0F9900004120413E4FBFA79C8784212AA
:1005D50002C45015900041E0FBA3E0FAA3E0F990B6
:1005E50000041204A642C80000900041E0FBA3E00D
:1005F500FAA3E0F9900008120413E4FBFA79C8782D
:10060500C21202C460194017900041E0FBA3E0FA52
:10061500A3E0F99000081204A6C2C8000080329039
:100625000041E0FBA3E0FAA3E0F9900008120413EF
:10063500E4FBFA79C878421202C45015900041E0F3
:10064500FBA3E0FAA3E0F99000081204A642C80053
:1006550000900041E0FBA3E0FAA3E0F990000C1242
:100665000413E4FBFA79C878C21202C46019401772
:10067500900041E0FBA3E0FAA3E0F990000C12041E
:10068500A6C2C800008032900041E0FBA3E0FAA3B7
:10069500E0F990000C120413E4FBFA79C8784212D1
:1006A50002C45015900041E0FBA3E0FAA3E0F990E5
:1006B500000C1204A642C80000900041E0FBA3E034
:1006C500FAA3E0F91203F3E4FBFAF9F81202C460A5
:1006D500084006C280D2808022900041E0FBA3E062
:1006E500FAA3E0F91203F3E4FBFAF9F81202C45095
:1006F50006D280C2808004C280C280900041E0FBA7
:10070500A3E0FAA3E0F91203F3E4FBFAF9F8120205
:10071500C490004160124010E0FBA3E0FAA3E0F9A9
:100725001203F312033D800BE0FBA3E0FAA3E0F90B
:100735001203F390004412044FE4FBFA79C878429F
:10074500900044E0FCA3E0FDA3E0FEA3E0FF12025D
:1007550027E4FBFA79FA784412011E12034E120EB1
:100765007D900041E0FBA3E0FAA3E0F990000412BC
:100775000413E4FBFAF9F81202C460084006C280CB
:10078500D2808025900041E0FBA3E0FAA3E0F99038
:100795000004120413E4FBFAF9F81202C45006D25D
:1007A50080C2808004C280C280900041E0FBA3E04B
:1007B500FAA3E0F9900004120413E4FBFAF9F81225
:1007C50002C490004160154013E0FBA3E0FAA3E0EA
:1007D500F990000412041312033D800EE0FBA3E020
:1007E500FAA3E0F990000412041390004412044F98
:1007F500E4FBFA79C87842900044E0FCA3E0FDA34D
:10080500E0FEA3E0FF120227E4FBFA79FA7844122E
:10081500011E12034E120EA6900041E0FBA3E0FA62
:10082500A3E0F9900008120413E4FBFAF9F81202A8
:10083500C460084006C280D2808025900041E0FB5C
:10084500A3E0FAA3E0F9900008120413E4FBFAF917
:10085500F81202C45006D280C2808004C280C280D1
:10086500900041E0FBA3E0FAA3E0F9900008120430
:1008750013E4FBFAF9F81202C49000416015401325
:10088500E0FBA3E0FAA3E0F99000081204131203B9
:100895003D800EE0FBA3E0FAA3E0F9900008120406
:1008A5001390004412044FE4FBFA79C87842900093
:1008B50044E0FCA3E0FDA3E0FEA3E0FF120227E471
:1008C500FBFA79FA784412011E12034E120ECF90EC
:1008D5000041E0FBA3E0FAA3E0F990000C12041339
:1008E500E4FBFAF9F81202C460084006C280D2801F
:1008F5008025900041E0FBA3E0FAA3E0F990000C0D
:10090500120413E4FBFAF9F81202C45006D280C2AD
:10091500808004C280C280900041E0FBA3E0FAA37E
:10092500E0F990000C120413E4FBFAF9F81202C482
:1009350090004160154013E0FBA3E0FAA3E0F990B5
:10094500000C12041312033D800EE0FBA3E0FAA392
:10095500E0F990000C12041390004412044FE4FBDC
:10096500FA79C87842900044E0FCA3E0FDA3E0FEDC
:10097500A3E0FF120227E4FBFA79FA784412011E7C
:0609850012034E020EF801
:100E1600900038E0702890002812045B0000000063
:100E260090002C12045B0000000090003012045B5E
:100E36000000000090003412045B000000007B01FB
:070E46007A00792802052A59
:06000300900038E0FF222E
:100FA900120E4D900040E060FAE4F0120BF580F368
:100E4D0043BA80E4F594F593F592F591F596F59501
:100E5D00F5B2F5B1F5B4F5B3F5CAF5C9F5CCF5CBE9
:100E6D00F5E2F5E1120F61120FB9120F47D2AF2261
:100F7A000000000000000000000000000000EF1F59
:080F8A0070011E144E70E922F3
:100F92007D607C09ED1D70011C144C70F7EF1F7011
:060FA200011E144E70EA6E
:010FA8002226
:060FD400A280B39280220E
:100F61005389FB538E7F5389FC5389F7D2B9D2A998
:090F7100758CD8758AF0D28C222F
:100FB900538EF7438E0475D6FF75D7CC438E102216
:03000B0002000EE2
:10000E00C0E0C083C0829000407401F0D082D083E3
:03001E00D0E032FD
:100F4700E5A2543F4440F5A2438E01D29CE5985454
:0A0F57003F4440F598C2BCD2AC2222
:03002300020FC900
:0B0FC900309902C299309802C29832A1
:100026000203BAE86480F8E933E83360110460F04B
:10003600ED33EC337009E8FCE9FDEAFEEBFF220440
:1000460060DED3EB9FEA9EE99DE8C2E78CF0C2F73B
:1000560095F0400CE8CCF8E9CDF9EACEFAEBCFFB07
:1000660012038585D0F05804700320D5B3E80470D8
:10007600075002B2D50203C492D5EC0460F7E4CC73
:10008600C0E0C398F8603B94186008400DD0E0FBD0
:1000960002039CE4FBFAC9FC8028E830E406E4C9C4
:1000A600FBE4CAFCE830E305E4C9CACBFCE8540724
:1000B6006010F8C3E913F9EA13FAEB13FBEC13FC2F
:1000C600D8F130F52FC3E49CFCEF9BFFEE9AFEEDD2
:1000D60099FDD0E0FBEF4E4D4C701222DB0302037C
:1000E600C1EC2CFCEF33FFEE33FEED33FDED30E7D4
:1000F600EB02039CEF2BFFEE3AFEED39FDD0E0FB61
:1001060050130BBB00030203C4ED13FDEE13FEEF09
:0801160013FFEC13FC02039C33
:10011E00EC4D6011E8497017ED33EC3304600DE4DB
:10012E00FCFFFEFD22E933E8330470F80203BA1235
:10013E00038558046009E4CC248150062850090236
:10014E0003C42840030203C1C0E0EB4A7044B980E7
:10015E0006D0E0FB0203B0EF4E701CBD8008EBFF33
:10016E00EAFEE9FD80EBE98DF0A4FEE5F002020760
:10017E00E9CDF9EAFEEBFFEF89F0A4FCE5F0CE89BC
:10018E00F0A42EFFE435F0CD89F0A42DFEE435F079
:10019E008067EF4E7005BD80D780C3EF8BF0A4ACA7
:1001AE00F0EE8BF0A42CFCE435F0F8EF8AF0A42CE2
:1001BE00E5F038FCE433CB8DF0A42CFCE5F03BF8F5
:1001CE00EE8AF0A42CFCE5F038F8E433CF89F0A4E5
:1001DE002CFCE5F038CF3400CE89F0A42FFFE5F0EB
:1001EE003EFEE433C98DF0A42EFEE5F039CD8AF043
:1001FE00A42FFFE5F03EFEE43DFD33D0E0FB5007BB
:10020E000BBB000F0203C4EC2CFCEF33FFEE33FEEE
:06021E00ED33FD02039C1C
:100224000203C4EC5D046005E8590470030203BAD8
:10023400120385580460F6EC4860F2EC7004FDFE8D
:10024400FF22C860DB2481C85009C39860025006AD
:100254000203C19850CAF582E9294B4A7005AB8262
:100264000203B075F0007C1A7880C3EF9BEE9AED20
:1002740099400DC3EF9BFFEE9AFEED99FDE842F025
:10028400DC23ACF0D0E0FFD0E0FED0E0FDAB822078
:10029400E7101BEB60BAEC2CFCEF33FFEE33FEED02
:1002A40033FD02039CE803F830E705C0F075F00065
:1002B400EF2FFFEE33FEED33FD40B830E7C280AAE6
:1002C40074F8CC6480CCC86480C8F58204604FC3E1
:1002D400EB9FF5F0EA9E42F0E99D42F0E89C45F080
:1002E400603C501DE5825FFFE582D313CB5BCBF40A
:1002F4002B5582FB50280ABA002409B90020088033
:100304001DE5825BFBE582D313CF5FCFF4C3132FCC
:100314005582FF50090EBE00050DBD00010CC3EB54
:100324009FF5F0EA9E42F0E99D42F0E89C45F060BA
:0903340007CC4820E701B3EC22DC
:10033D00ED33EC33600A047003BD8004ECB2E7FCCE
:01034D00228D
:10034E00EDD2E7CD33EC3392D524814006E4FFFEA7
:10035E00FDFC22FCE4CFCECDCC24E0501174FF8006
:10036E00EDC3CC13CCCD13CDCE13CECF13CF0470A3
:07037E00F030D5DE0203E5BB
:100B49000203BA22EDA2E7D2E7F9EC3340F260F3EF
:100B5900B4FF08ED547F70E80203C4F82481C2E0B1
:100B6900C0E0F40428FAC313FCED92E7FD900048B5
:100B790012044FEEA2E7E9BA7F02C31334009400CE
:100B8900FA75F091A4E5F013F494FE8AF0A433E524
:100B9900F033248CD313FDE492E7FE7F007C3F758C
:100BA9008302ECC0E0F8EDC0E0F9EEC0E0FAEFC076
:100BB900E0FB8583F090004812044385F08312021C
:100BC90027D0E0FBD0E0FAD0E0F9D0E0F812002D10
:100BD900ED6480FD30E7011CD583C7ED33CC33F8D4
:0C0BE900D0E0A2E71328C313CC13FD22B8
:10038500E9D2E7C933E833F892D5EDD2E7CD33ECBE
:0703950033FC5002B2D52237
:10039C00EC30E7100FBF000C0EBE00080DBD0004C2
:1003AC000BEB6014A2D5EB13FCED92E7FD2274FF6E
:1003BC00FCFDFEFF22E480F8A2D574FF13FC7D80C7
:0303CC00E480EFDB
:03000000020D13DB
:0C0D1300787FE4F6D8FD758107020D5AC8
:1003CF00C5F0F8A3E028F0C5F0F8E58215827002B9
:0603DF001583E038F02256
:0E03E500C3E49FFFE49EFEE49DFDE49CFC2229
:1003F300BB010789828A830204435005E9F802049A
:10040300D0BBFE05E9F80204DC89828A830204E892
:10041300BB010DE58229F582E5833AF583020443A6
:100423005007E92582F80204D0BBFE07E92582F8CC
:100433000204DCE58229F582E5833AF5830204E8C8
:0C044300E0FCA3E0FDA3E0FEA3E0FF222C
:0C044F00ECF0A3EDF0A3EEF0A3EFF02220
:10045B00A8828583F0D083D08212047212047212A8
:10046B000472120472E473E493A3C583C5F0C583CD
:10047B00C8C582C8F0A3C583C5F0C583C8C582C8EB
:01048B00224E
:10048C00BB010789828A8302045B5005E9F80204E8
:0A049C00F8BBFE05E9F80205112285
:1004A600BB010DE58229F582E5833AF58302045BFB
:1004B6005007E92582F80204F8BBFE07E92582F811
:0404C60002051122F8
:0604CA008A838982E473BD
:100D1F00020FA9E493A3F8E493A34003F68001F232
:100D2F0008DFF48029E493A3F85407240CC8C333D5
:100D3F00C4540F4420C8834004F456800146F6DFA4
:100D4F00E4800B0102040810204080900F21E47E04
:100D5F00019360BCA3FF543F30E509541FFEE49399
:100D6F00A360010ECF54C025E060A840B8E493A360
:100D7F00FAE493A3F8E493A3C8C582C8CAC583CA8B
:100D8F00F0A3C8C582C8CAC583CADFE9DEE780BE43
:010F460000AA
:0C04D000E6FC08E6FD08E6FE08E6FF2258
:0C04DC00E2FC08E2FD08E2FE08E2FF225C
:1004E800E493FC740193FD740293FE740393FF225A
:1004F800D083D082E493F608740193F608740293CB
:09050800F608740393F674047301
:10051100D083D082E493F208740193F208740293B9
:09052100F208740393F2740473F0
:00000001FF
